{
  "contractName": "Question",
  "abi": [
    {
      "inputs": [
        {
          "internalType": "address",
          "name": "questionCreator",
          "type": "address"
        },
        {
          "internalType": "string",
          "name": "title",
          "type": "string"
        },
        {
          "internalType": "string",
          "name": "desc",
          "type": "string"
        },
        {
          "internalType": "string",
          "name": "tag",
          "type": "string"
        }
      ],
      "payable": true,
      "stateMutability": "payable",
      "type": "constructor",
      "signature": "constructor"
    },
    {
      "constant": true,
      "inputs": [],
      "name": "ansIndex",
      "outputs": [
        {
          "internalType": "int256",
          "name": "",
          "type": "int256"
        }
      ],
      "payable": false,
      "stateMutability": "view",
      "type": "function",
      "signature": "0x1b47cdc8"
    },
    {
      "constant": true,
      "inputs": [
        {
          "internalType": "uint256",
          "name": "",
          "type": "uint256"
        }
      ],
      "name": "answers",
      "outputs": [
        {
          "internalType": "string",
          "name": "answer",
          "type": "string"
        },
        {
          "internalType": "address payable",
          "name": "answerer",
          "type": "address"
        },
        {
          "internalType": "int256",
          "name": "answerIndex",
          "type": "int256"
        },
        {
          "internalType": "uint256",
          "name": "answerUpVoteCount",
          "type": "uint256"
        },
        {
          "internalType": "uint256",
          "name": "answerDownVoteCount",
          "type": "uint256"
        },
        {
          "internalType": "uint256",
          "name": "reputationCount",
          "type": "uint256"
        },
        {
          "internalType": "bool",
          "name": "accepted",
          "type": "bool"
        }
      ],
      "payable": false,
      "stateMutability": "view",
      "type": "function",
      "signature": "0x17599cc5"
    },
    {
      "constant": true,
      "inputs": [],
      "name": "answersCount",
      "outputs": [
        {
          "internalType": "uint256",
          "name": "",
          "type": "uint256"
        }
      ],
      "payable": false,
      "stateMutability": "view",
      "type": "function",
      "signature": "0xe2ca6eb7"
    },
    {
      "constant": true,
      "inputs": [],
      "name": "ball",
      "outputs": [
        {
          "internalType": "uint256",
          "name": "",
          "type": "uint256"
        }
      ],
      "payable": false,
      "stateMutability": "view",
      "type": "function",
      "signature": "0x3b1e89a6"
    },
    {
      "constant": true,
      "inputs": [],
      "name": "questionDescription",
      "outputs": [
        {
          "internalType": "string",
          "name": "",
          "type": "string"
        }
      ],
      "payable": false,
      "stateMutability": "view",
      "type": "function",
      "signature": "0x8e227d61"
    },
    {
      "constant": true,
      "inputs": [],
      "name": "questionDownVote",
      "outputs": [
        {
          "internalType": "uint256",
          "name": "",
          "type": "uint256"
        }
      ],
      "payable": false,
      "stateMutability": "view",
      "type": "function",
      "signature": "0x16f1333e"
    },
    {
      "constant": true,
      "inputs": [],
      "name": "questionTag",
      "outputs": [
        {
          "internalType": "string",
          "name": "",
          "type": "string"
        }
      ],
      "payable": false,
      "stateMutability": "view",
      "type": "function",
      "signature": "0x60213165"
    },
    {
      "constant": true,
      "inputs": [],
      "name": "questionTitle",
      "outputs": [
        {
          "internalType": "string",
          "name": "",
          "type": "string"
        }
      ],
      "payable": false,
      "stateMutability": "view",
      "type": "function",
      "signature": "0x632b1ae1"
    },
    {
      "constant": true,
      "inputs": [],
      "name": "questionUpVote",
      "outputs": [
        {
          "internalType": "uint256",
          "name": "",
          "type": "uint256"
        }
      ],
      "payable": false,
      "stateMutability": "view",
      "type": "function",
      "signature": "0x72ca265c"
    },
    {
      "constant": true,
      "inputs": [],
      "name": "questioner",
      "outputs": [
        {
          "internalType": "address",
          "name": "",
          "type": "address"
        }
      ],
      "payable": false,
      "stateMutability": "view",
      "type": "function",
      "signature": "0x018c0277"
    },
    {
      "constant": true,
      "inputs": [],
      "name": "rewards",
      "outputs": [
        {
          "internalType": "uint256",
          "name": "",
          "type": "uint256"
        }
      ],
      "payable": false,
      "stateMutability": "view",
      "type": "function",
      "signature": "0x9ec5a894"
    },
    {
      "constant": false,
      "inputs": [
        {
          "internalType": "string",
          "name": "answerDescription",
          "type": "string"
        }
      ],
      "name": "postAnswer",
      "outputs": [],
      "payable": false,
      "stateMutability": "nonpayable",
      "type": "function",
      "signature": "0x5a3dcffb"
    },
    {
      "constant": false,
      "inputs": [
        {
          "internalType": "uint256",
          "name": "index",
          "type": "uint256"
        }
      ],
      "name": "upVoteAnswer",
      "outputs": [],
      "payable": false,
      "stateMutability": "nonpayable",
      "type": "function",
      "signature": "0x56733f4d"
    },
    {
      "constant": false,
      "inputs": [
        {
          "internalType": "uint256",
          "name": "index",
          "type": "uint256"
        }
      ],
      "name": "downVoteAnswer",
      "outputs": [],
      "payable": false,
      "stateMutability": "nonpayable",
      "type": "function",
      "signature": "0xccf32a53"
    },
    {
      "constant": false,
      "inputs": [
        {
          "internalType": "uint256",
          "name": "index",
          "type": "uint256"
        }
      ],
      "name": "acceptAnswer",
      "outputs": [
        {
          "internalType": "bool",
          "name": "",
          "type": "bool"
        }
      ],
      "payable": true,
      "stateMutability": "payable",
      "type": "function",
      "signature": "0x986bd4c9"
    },
    {
      "constant": true,
      "inputs": [],
      "name": "getAnswersLength",
      "outputs": [
        {
          "internalType": "uint256",
          "name": "",
          "type": "uint256"
        }
      ],
      "payable": false,
      "stateMutability": "view",
      "type": "function",
      "signature": "0xa0ef9cf4"
    }
  ],
  "bytecode": "0x60806040527fffffffffffffffffffffffffffffffffffffffffffffffffffffffffffffffff6009556040516200172938038062001729833981810160405260808110156200004d57600080fd5b8101908080519060200190929190805160405193929190846401000000008211156200007857600080fd5b838201915060208201858111156200008f57600080fd5b8251866001820283011164010000000082111715620000ad57600080fd5b8083526020830192505050908051906020019080838360005b83811015620000e3578082015181840152602081019050620000c6565b50505050905090810190601f168015620001115780820380516001836020036101000a031916815260200191505b50604052602001805160405193929190846401000000008211156200013557600080fd5b838201915060208201858111156200014c57600080fd5b82518660018202830111640100000000821117156200016a57600080fd5b8083526020830192505050908051906020019080838360005b83811015620001a057808201518184015260208101905062000183565b50505050905090810190601f168015620001ce5780820380516001836020036101000a031916815260200191505b5060405260200180516040519392919084640100000000821115620001f257600080fd5b838201915060208201858111156200020957600080fd5b82518660018202830111640100000000821117156200022757600080fd5b8083526020830192505050908051906020019080838360005b838110156200025d57808201518184015260208101905062000240565b50505050905090810190601f1680156200028b5780820380516001836020036101000a031916815260200191505b5060405250505083600860006101000a81548173ffffffffffffffffffffffffffffffffffffffff021916908373ffffffffffffffffffffffffffffffffffffffff1602179055508260019080519060200190620002eb9291906200035e565b508160029080519060200190620003049291906200035e565b503073ffffffffffffffffffffffffffffffffffffffff163160038190555080600490805190602001906200033b9291906200035e565b50600060058190555060006006819055506000600781905550505050506200040d565b828054600181600116156101000203166002900490600052602060002090601f016020900481019282601f10620003a157805160ff1916838001178555620003d2565b82800160010185558215620003d2579182015b82811115620003d1578251825591602001919060010190620003b4565b5b509050620003e19190620003e5565b5090565b6200040a91905b8082111562000406576000816000905550600101620003ec565b5090565b90565b61130c806200041d6000396000f3fe608060405260043610610110576000357c010000000000000000000000000000000000000000000000000000000090048063632b1ae1116100a75780639ec5a894116100765780639ec5a8941461061f578063a0ef9cf41461064a578063ccf32a5314610675578063e2ca6eb7146106b057610110565b8063632b1ae11461048e57806372ca265c1461051e5780638e227d6114610549578063986bd4c9146105d957610110565b80633b1e89a6116100e35780633b1e89a6146102d057806356733f4d146102fb5780635a3dcffb1461033657806360213165146103fe57610110565b8063018c02771461011557806316f1333e1461016c57806317599cc5146101975780631b47cdc8146102a5575b600080fd5b34801561012157600080fd5b5061012a6106db565b604051808273ffffffffffffffffffffffffffffffffffffffff1673ffffffffffffffffffffffffffffffffffffffff16815260200191505060405180910390f35b34801561017857600080fd5b50610181610701565b6040518082815260200191505060405180910390f35b3480156101a357600080fd5b506101d0600480360360208110156101ba57600080fd5b8101908080359060200190929190505050610707565b60405180806020018873ffffffffffffffffffffffffffffffffffffffff1673ffffffffffffffffffffffffffffffffffffffff16815260200187815260200186815260200185815260200184815260200183151515158152602001828103825289818151815260200191508051906020019080838360005b83811015610264578082015181840152602081019050610249565b50505050905090810190601f1680156102915780820380516001836020036101000a031916815260200191505b509850505050505050505060405180910390f35b3480156102b157600080fd5b506102ba61081b565b6040518082815260200191505060405180910390f35b3480156102dc57600080fd5b506102e5610821565b6040518082815260200191505060405180910390f35b34801561030757600080fd5b506103346004803603602081101561031e57600080fd5b8101908080359060200190929190505050610827565b005b34801561034257600080fd5b506103fc6004803603602081101561035957600080fd5b810190808035906020019064010000000081111561037657600080fd5b82018360208201111561038857600080fd5b803590602001918460018302840111640100000000831117156103aa57600080fd5b91908080601f016020809104026020016040519081016040528093929190818152602001838380828437600081840152601f19601f820116905080830192505050505050509192919290505050610979565b005b34801561040a57600080fd5b50610413610b26565b6040518080602001828103825283818151815260200191508051906020019080838360005b83811015610453578082015181840152602081019050610438565b50505050905090810190601f1680156104805780820380516001836020036101000a031916815260200191505b509250505060405180910390f35b34801561049a57600080fd5b506104a3610bc4565b6040518080602001828103825283818151815260200191508051906020019080838360005b838110156104e35780820151818401526020810190506104c8565b50505050905090810190601f1680156105105780820380516001836020036101000a031916815260200191505b509250505060405180910390f35b34801561052a57600080fd5b50610533610c62565b6040518082815260200191505060405180910390f35b34801561055557600080fd5b5061055e610c68565b6040518080602001828103825283818151815260200191508051906020019080838360005b8381101561059e578082015181840152602081019050610583565b50505050905090810190601f1680156105cb5780820380516001836020036101000a031916815260200191505b509250505060405180910390f35b610605600480360360208110156105ef57600080fd5b8101908080359060200190929190505050610d06565b604051808215151515815260200191505060405180910390f35b34801561062b57600080fd5b50610634610f96565b6040518082815260200191505060405180910390f35b34801561065657600080fd5b5061065f610f9c565b6040518082815260200191505060405180910390f35b34801561068157600080fd5b506106ae6004803603602081101561069857600080fd5b8101908080359060200190929190505050610fa9565b005b3480156106bc57600080fd5b506106c56110fb565b6040518082815260200191505060405180910390f35b600860009054906101000a900473ffffffffffffffffffffffffffffffffffffffff1681565b60065481565b600a818154811061071457fe5b90600052602060002090600b0201600091509050806000018054600181600116156101000203166002900480601f0160208091040260200160405190810160405280929190818152602001828054600181600116156101000203166002900480156107c05780601f10610795576101008083540402835291602001916107c0565b820191906000526020600020905b8154815290600101906020018083116107a357829003601f168201915b5050505050908060010160009054906101000a900473ffffffffffffffffffffffffffffffffffffffff16908060020154908060030154908060040154908060050154908060060160009054906101000a900460ff16905087565b60095481565b60005481565b6000600a828154811061083657fe5b90600052602060002090600b020190508060070160003373ffffffffffffffffffffffffffffffffffffffff1673ffffffffffffffffffffffffffffffffffffffff16815260200190815260200160002060009054906101000a900460ff161561089f57600080fd5b8060030160008154809291906001019190505550806008013390806001815401808255809150509060018203906000526020600020016000909192909190916101000a81548173ffffffffffffffffffffffffffffffffffffffff021916908373ffffffffffffffffffffffffffffffffffffffff1602179055505060018160070160003373ffffffffffffffffffffffffffffffffffffffff1673ffffffffffffffffffffffffffffffffffffffff16815260200190815260200160002060006101000a81548160ff0219169083151502179055505050565b6007600081548092919060010191905055506009600081548092919060010191905055506060806109a8611101565b6040518061012001604052808581526020013373ffffffffffffffffffffffffffffffffffffffff1681526020016009548152602001600081526020016000815260200160008152602001600015158152602001848152602001838152509050600a819080600181540180825580915050906001820390600052602060002090600b0201600090919290919091506000820151816000019080519060200190610a52929190611165565b5060208201518160010160006101000a81548173ffffffffffffffffffffffffffffffffffffffff021916908373ffffffffffffffffffffffffffffffffffffffff16021790555060408201518160020155606082015181600301556080820151816004015560a0820151816005015560c08201518160060160006101000a81548160ff02191690831515021790555060e0820151816008019080519060200190610afe9291906111e5565b50610100820151816009019080519060200190610b1c9291906111e5565b5050505050505050565b60048054600181600116156101000203166002900480601f016020809104026020016040519081016040528092919081815260200182805460018160011615610100020316600290048015610bbc5780601f10610b9157610100808354040283529160200191610bbc565b820191906000526020600020905b815481529060010190602001808311610b9f57829003601f168201915b505050505081565b60018054600181600116156101000203166002900480601f016020809104026020016040519081016040528092919081815260200182805460018160011615610100020316600290048015610c5a5780601f10610c2f57610100808354040283529160200191610c5a565b820191906000526020600020905b815481529060010190602001808311610c3d57829003601f168201915b505050505081565b60055481565b60028054600181600116156101000203166002900480601f016020809104026020016040519081016040528092919081815260200182805460018160011615610100020316600290048015610cfe5780601f10610cd357610100808354040283529160200191610cfe565b820191906000526020600020905b815481529060010190602001808311610ce157829003601f168201915b505050505081565b6000600860009054906101000a900473ffffffffffffffffffffffffffffffffffffffff1673ffffffffffffffffffffffffffffffffffffffff163373ffffffffffffffffffffffffffffffffffffffff1614610d6257600080fd5b6000600a8381548110610d7157fe5b90600052602060002090600b0201905060018160060160006101000a81548160ff021916908315150217905550600081600301541415610e32578060010160009054906101000a900473ffffffffffffffffffffffffffffffffffffffff1673ffffffffffffffffffffffffffffffffffffffff166108fc3073ffffffffffffffffffffffffffffffffffffffff16319081150290604051600060405180830381858888f19350505050158015610e2c573d6000803e3d6000fd5b50610f8c565b8060010160009054906101000a900473ffffffffffffffffffffffffffffffffffffffff1673ffffffffffffffffffffffffffffffffffffffff166108fc606460463073ffffffffffffffffffffffffffffffffffffffff16310281610e9457fe5b049081150290604051600060405180830381858888f19350505050158015610ec0573d6000803e3d6000fd5b50600081600301543073ffffffffffffffffffffffffffffffffffffffff163181610ee757fe5b04905060008090505b8260030154811015610f8957826008018181548110610f0b57fe5b9060005260206000200160009054906101000a900473ffffffffffffffffffffffffffffffffffffffff1673ffffffffffffffffffffffffffffffffffffffff166108fc839081150290604051600060405180830381858888f19350505050158015610f7b573d6000803e3d6000fd5b508080600101915050610ef0565b50505b6001915050919050565b60035481565b6000600a80549050905090565b6000600a8281548110610fb857fe5b90600052602060002090600b0201905080600a0160003373ffffffffffffffffffffffffffffffffffffffff1673ffffffffffffffffffffffffffffffffffffffff16815260200190815260200160002060009054906101000a900460ff161561102157600080fd5b8060040160008154809291906001019190505550806009013390806001815401808255809150509060018203906000526020600020016000909192909190916101000a81548173ffffffffffffffffffffffffffffffffffffffff021916908373ffffffffffffffffffffffffffffffffffffffff16021790555050600181600a0160003373ffffffffffffffffffffffffffffffffffffffff1673ffffffffffffffffffffffffffffffffffffffff16815260200190815260200160002060006101000a81548160ff0219169083151502179055505050565b60075481565b60405180610120016040528060608152602001600073ffffffffffffffffffffffffffffffffffffffff1681526020016000815260200160008152602001600081526020016000815260200160001515815260200160608152602001606081525090565b828054600181600116156101000203166002900490600052602060002090601f016020900481019282601f106111a657805160ff19168380011785556111d4565b828001600101855582156111d4579182015b828111156111d35782518255916020019190600101906111b8565b5b5090506111e1919061126f565b5090565b82805482825590600052602060002090810192821561125e579160200282015b8281111561125d5782518260006101000a81548173ffffffffffffffffffffffffffffffffffffffff021916908373ffffffffffffffffffffffffffffffffffffffff16021790555091602001919060010190611205565b5b50905061126b9190611294565b5090565b61129191905b8082111561128d576000816000905550600101611275565b5090565b90565b6112d491905b808211156112d057600081816101000a81549073ffffffffffffffffffffffffffffffffffffffff02191690555060010161129a565b5090565b9056fea265627a7a7231582041bd1bbd735654a559c27992965fae146c1889add54260ee9bc45b9672b351c364736f6c634300050c0032",
  "source": "    pragma solidity ^0.5.6;\n    //contract to handle multiple questions\n    contract factoryQuestion{\n        constructor() public payable{\n            \n        }\n        address[] public askedQuestions;\n        function askQuestion(string memory title,string memory description,string memory tag) public payable{\n            //   address question = address(new Question(msg.value,msg.sender,title,description,tag));\n            address newQuestion = address((new Question).value(msg.value)(msg.sender, title,description,tag));\n            askedQuestions.push(newQuestion);\n        }\n        function getAskedQuestions() public view returns (address[] memory) {\n            return askedQuestions;\n        }\n    }\n    //Contract to handle a single Question\n    contract Question{\n        uint public ball;\n        string  public questionTitle; \n        string  public questionDescription;\n        uint public rewards;\n        string  public questionTag;\n        uint  public questionUpVote;\n        uint  public questionDownVote;\n        uint public answersCount;\n        address public  questioner;\n        int public ansIndex = -1;\n        constructor( //Setting the default values\n                    address questionCreator,\n                    string memory title, \n                    string memory desc,\n                    string memory tag\n                   ) public payable{\n            questioner = questionCreator;\n            questionTitle = title;\n            questionDescription = desc;\n            rewards = address(this).balance;\n            questionTag = tag;\n            questionUpVote = 0;\n            questionDownVote = 0;\n            answersCount = 0;\n           \n        }\n        struct Answer{\n            string answer;\n            address payable answerer;\n            int answerIndex;\n            uint answerUpVoteCount;\n            uint answerDownVoteCount;\n            uint reputationCount;\n            bool accepted;\n            mapping(address=>bool) upVoters;\n            address payable [] upVotersArr;\n            address payable []  downVotersArr;\n            mapping(address=>bool) downVoters;\n        }\n        Answer[] public answers;// Collections of answers to a particular question\n        modifier restricted{\n            require(msg.sender==questioner);\n            _;\n        }\n        //Function to answer to a particular question..\n        function postAnswer(string memory answerDescription) public {\n            answersCount ++;\n            ansIndex++; \n            address payable [] memory  initialUpVotersArr;\n            address payable [] memory initialdownVotersArr;\n            Answer memory ans = Answer({\n                answer : answerDescription,\n                answerIndex : ansIndex,\n                answerer : msg.sender,\n                answerUpVoteCount:0,\n                answerDownVoteCount : 0,\n                accepted : false,\n                upVotersArr:initialUpVotersArr,\n                downVotersArr : initialdownVotersArr,\n                reputationCount : 0\n            });\n            answers.push(ans);\n        }\n        //Upvote a particular answer\n        function upVoteAnswer(uint index) public {\n            Answer storage answer = answers[index];\n            require(!answer.upVoters[msg.sender]); //modifier to validate upVoters, upVoter cannot upVote a same answer multiple times\n            answer.answerUpVoteCount++;\n            answer.upVotersArr.push(msg.sender);\n            answer.upVoters[msg.sender]=true;\n        }\n        function downVoteAnswer(uint index) public { //Same actions for downvote \n            Answer storage answer = answers[index];\n            require(!answer.downVoters[msg.sender]);\n            answer.answerDownVoteCount++;\n            answer.downVotersArr.push(msg.sender);\n            answer.downVoters[msg.sender]=true;\n        }\n     \n        \n        //Function to accept a Answer as a accepted one.. can only performed by Quesitoner..\n        function acceptAnswer(uint index) public restricted payable  returns(bool)  {\n            Answer storage ans = answers[index];\n             ans.accepted = true;\n              if(ans.answerUpVoteCount==0)\n                {\n                    ans.answerer.transfer(address(this).balance);\n                }\n             else{\n                    ans.answerer.transfer(address(this).balance*70/100);\n                    //Remaining amt \n                    uint amtSharePerVoter;\n                    amtSharePerVoter = address(this).balance / ans.answerUpVoteCount;\n                    //Send to voters\n                    for(uint upVotersCount=0; upVotersCount<ans.answerUpVoteCount;upVotersCount++)\n                    {\n                        ans.upVotersArr[upVotersCount].transfer(amtSharePerVoter);\n                    }\n               }\n            return true;\n        }\n        //Get answes Length\n        function getAnswersLength() public view returns (uint){\n            return answers.length;\n        }\n       \n    }",
  "sourcePath": "/home/sudhu/codeBountyFinal/src/contracts/CodeBounty.sol",
  "compiler": {
    "name": "solc",
    "version": "0.5.12+commit.7709ece9.Emscripten.clang"
  },
  "schemaVersion": "3.0.2",
  "updatedAt": "2020-03-10T06:34:18.669Z",
  "devdoc": {
    "methods": {}
  },
  "userdoc": {
    "methods": {}
  }
}